:100000000C9441010C9472010C9472010C947201D5
:100010000C9472010C9472010C9472010C94720194
:100020000C9472010C9472010C9472010C94720184
:100030000C9472010C9472010C9472010C94720174
:100040000C9472010C9472010C9472010C94720164
:100050000C9472010C9472010C9472010C940709B7
:100060000C9472010C94D1080C94A7080C947201A2
:100070000C9472010C9472010C9472010C94720134
:100080000C9472010C9472010C9472010C94720124
:100090000C9472010C9472010C9472010C94720114
:1000A0000C9472010C9472010C9472010C94720104
:1000B0000C9472010C9472010C9472010C947201F4
:1000C0000C9472010C9472010C9472010C947201E4
:1000D0000C9472010C9472010C9472010C947201D4
:1000E0000C9472010C945E020C94A4020C947F0395
:1000F0000C9466030C9403040C943B020C9475035B
:100100000C9472030C9451090C94D0050C94A10822
:100110000C9485030C946A030C9443040C94A00380
:100120000C9489030C944A020C94F1020C94A503DC
:100130000C94D1050C940E020C9493030C949B0325
:100140000C94D2030C9497030C946C020C946003EF
:100150000C947B030C94A1030C948D030C946E03FC
:1001600000002100240027002A002D003000330069
:1001700001010000040107010A010000220025001E
:1001800028002B002E003100340002010000050180
:1001900008010B01000020002300260029002C008C
:1001A0002F003200000100000301060109010505CE
:1001B0000505070508080808020202020A0A0808DD
:1001C000040404040101010101010101030303030B
:1001D00003030303040707070C0C0C0C0C0C0C0C9A
:1001E0000202020206060606060606060B0B0B0BAB
:1001F0000B0B0B0B010210202008081020401020D0
:1002000040800201020108040201010204081020DA
:1002100040808040201008040201800402018040D8
:100220002010080402010804020101020408102041
:100230004080010204081020408000000A0B0209DF
:100240000C0D0E0807030401000000000000000070
:10025000000000000000000000000000000000009E
:10026000000000000000121110000000000000005B
:10027000000000000000000000000000000000007E
:10028000510911241FBECFEFD1E2DEBFCDBF00E088
:100290000CBF12E0A0E0B2E0E0E9F7E100E00BBF44
:1002A00002C007900D92A238B107D9F723E0A2E867
:1002B000B2E001C01D92A03BB207E1F711E0C1E43A
:1002C000D1E000E006C021970109802FFE010E94C5
:1002D000AA0BC034D10780E00807A9F70E940C0AD6
:1002E0000C94C60B0C94000096E0899FD001112459
:1002F000A75DBC4F90967C936E935F9791E091962B
:100300009C939197E0919603F091970390919503B8
:10031000992339F0309751F0811108C0809145033D
:100320001994309719F05C968C91FACF0895CF927A
:10033000DF92EF92FF920F931F9396E0899FF00157
:100340001124E75DFC4F11A2278D30A1213031052A
:1003500051F178F02230310509F451C023303105D4
:1003600009F452C01F910F91FF90EF90DF90CF9052
:1003700008956623B9F361E070E00E9474012FB71D
:10038000F8948091880290918902A0918A02B0919C
:100390008B022FBF8093810390938203A0938303EA
:1003A000B0938403DFCF9FB7F894C0908802D090B9
:1003B0008902E0908A02F0908B029FBF0091810336
:1003C000109182032091830330918403C01AD10AD3
:1003D000E20AF30A009193031091940330E020E0C5
:1003E0000C151D052E053F0550F462E070E01F91CD
:1003F0000F91FF90EF90DF90CF900C9474016111FA
:10040000B1CF63E070E0F3CF70E060E0F0CFDC01EB
:10041000ED91FC910190F081E02D1994AF92BF9283
:10042000CF92DF92EF92FF920F931F93CF93DF93C0
:100430006C017B018B01040F151FEB015E01AE18EF
:10044000BF08C017D10759F06991D601ED91FC9111
:100450000190F081E02DC6011995892B79F7C5012E
:10046000DF91CF911F910F91FF90EF90DF90CF9090
:10047000BF90AF900895FC01538D448D252F30E03F
:10048000842F90E0821B930B541710F0CF960895A1
:1004900001970895FC01918D828D981761F0A28DCE
:1004A000AE0FBF2FB11D5D968C91928D9F5F9F7394
:1004B000928F90E008958FEF9FEF0895FC01918D4A
:1004C000828D981731F0828DE80FF11D858D90E0B7
:1004D00008958FEF9FEF0895FC01918D228D892F54
:1004E00090E0805C9F4F821B91098F73992708953C
:1004F0008CE892E00E946C0221E0892B09F420E054
:10050000822F0895FC01A48DA80FB92FB11DA35A05
:10051000BF4F2C91848D90E001968F739927848F23
:10052000A689B7892C93A089B1898C918370806446
:100530008C93938D848D981306C00288F389E02DE7
:1005400080818F7D80830895EF92FF920F931F9398
:10055000CF93DF93EC0181E0888F9B8D8C8D981376
:100560001AC0E889F989808185FF15C09FB7F89482
:10057000EE89FF896083E889F989808183708064CE
:1005800080839FBF81E090E0DF91CF911F910F9119
:10059000FF90EF900895F62E0B8D10E00F5F1F4F28
:1005A0000F731127E02E8C8D8E110CC00FB607FC37
:1005B000FACFE889F989808185FFF5CFCE010E94C5
:1005C0008202F1CFEB8DEC0FFD2FF11DE35AFF4FAF
:1005D000F0829FB7F8940B8FEA89FB898081806253
:1005E000CFCFCF93DF93EC01888D8823B9F0AA8910
:1005F000BB89E889F9898C9185FD03C0808186FDDE
:100600000DC00FB607FCF7CF8C9185FFF2CF80812C
:1006100085FFEDCFCE010E948202E9CFDF91CF911D
:10062000089580E090E0892B29F00E9478028111E2
:100630000E94000080E090E0892B49F080E090E08B
:10064000892B29F00E94000081110E94000080E0A7
:1006500090E0892B49F080E090E0892B29F00E94FE
:10066000000081110E94000080E090E0892B49F099
:1006700080E090E0892B29F00E94000081110C9409
:10068000000008958150823108F05AC0E82FF0E050
:100690008827E25BFC4F8F4F0C94AA0B6E0372030A
:1006A000600366036A03A00375037B037F0385036E
:1006B00089038D0393039703A0039B03A103A50361
:1006C000809180008F7780938000089580918000D2
:1006D0008F7DF9CF80918000877FF5CF84B58F77AC
:1006E00084BD089584B58F7DFBCF8091B0008F7756
:1006F0008093B00008958091B0008F7DF9CF8091F4
:1007000090008F77809390000895809190008F7D66
:10071000F9CF80919000877FF5CF8091A0008F77EF
:100720008093A00008958091A0008F7DF9CF8091E3
:10073000A000877FF5CF809120018F7780932001E3
:100740000895809120018F7DF9CF80912001877FCE
:10075000F5CFCF93DF93282F30E0F901E65CFD4F12
:100760008491F901EC50FE4FD491F901E255FE4F0E
:10077000C491CC23A1F081110E944203EC2FF0E040
:10078000EE0FFF1FEC56FE4FA591B491EC91ED23B7
:1007900081E090E009F480E0DF91CF91089580E05E
:1007A00090E0FACF862F0C94A9031F93CF93DF9389
:1007B000282F30E0F901E65CFD4F8491F901EC50FF
:1007C000FE4FD491F901E255FE4FC491CC23A9F01C
:1007D000162F81110E944203EC2FF0E0EE0FFF1F55
:1007E000E658FE4FA591B4918FB7F894EC91111192
:1007F00008C0D095DE23DC938FBFDF91CF911F918E
:100800000895DE2BF8CF862F642F0C94D503CF9359
:10081000DF9390E0FC01EC50FE4F249182559E4FF7
:10082000FC0184918823C9F090E0880F991FFC0196
:10083000E05AFE4FA591B491FC01E658FE4FC591D8
:10084000D49161110DC09FB7F8948C9120958223AB
:100850008C938881282328839FBFDF91CF910895AF
:10086000623051F49FB7F8943C91822F8095832396
:100870008C93E8812E2BEFCF8FB7F894EC912E2B31
:100880002C938FBFEACF862F642F0C9407042F92EE
:100890003F924F925F926F927F928F929F92AF9210
:1008A000BF92CF92DF92EF92FF920F931F93CF935D
:1008B000DF9322242394812C912C54018394662469
:1008C0006A94762C56E0352E209295038FB7F894D3
:1008D000409188025091890260918A0270918B0246
:1008E0008FBF8091850390918603A0918703B0917B
:1008F0008803481B590B6A0B7B0B809191039091E5
:100900009203B0E0A0E084179507A607B707E0F6CA
:10091000C0E080918F03C81760F4E0918B03F091E1
:100920008C03EC0FF11D62E080810E940704CF5F11
:10093000F0CF512C80919003581608F05FC0052D20
:1009400010E0E0918D03F0918E03E00FF11F61E064
:1009500080810E940704E0918D03F0918E03E00FE7
:10096000F11F60E080810E94D503D501C401052CF0
:1009700004C0880F991FAA1FBB1F0A94D2F76C01ED
:100980007C01E094F094412C80918F034816F8F498
:10099000C42DD0E0E0918B03F0918C03EC0FFD1F90
:1009A00080810E94A9032496CC0FDD1FC75DDC4F18
:1009B000892B41F4888199818C299D299983888389
:1009C0004394E2CF888199818E219F21F7CFE091D6
:1009D0008D03F0918E03E00FF11F61E080810E9492
:1009E000D50380918D0390918E03080F191F60E04D
:1009F000F80180810E94070453949CCFC9E2D3E0A0
:100A0000FE01878D90A1892B21F4148E768E658E40
:100A100011A2369683E0E536F80799F710E0809149
:100A20008F03181708F052C000E0E12EF12CEE0CF5
:100A3000FF1CF701EF5CFC4F7F0120919003021730
:100A400008F042C0F70160817181002E02C07695E6
:100A500067950A94E2F7129F90011124200F311D2F
:100A6000E9E2F3E080E0458D568D2417350709F45F
:100A700070C08F5F36968A30B1F760FF23C0E9E21D
:100A8000F3E090E080E0448D411117C0E0918903CC
:100A9000F0918A03E20FF31F6081389EF001399EC6
:100AA000F00D1124E75DFC4F648F368F258F10A267
:100AB000178E61E00E94970105C0019636968A3034
:100AC000910509F70F5FB9CF1F5FA9CF80E099A10A
:100AD0009111892F2696F3E0C536DF07C1F79FB73E
:100AE000F894409188025091890260918A02709135
:100AF0008B029FBF409385035093860360938703C7
:100B000070938803882309F4DFCE80914A038823F9
:100B100009F4DACE8091480390914903019709F0D6
:100B2000D3CE80914503882309F4CECEDF91CF91B7
:100B30001F910F91FF90EF90DF90CF90BF90AF90FB
:100B40009F908F907F906F905F904F903F902F90ED
:100B500008956170AFCF3FB7F89480918302909170
:100B60008402A0918502B091860226B5A89B05C09B
:100B70002F3F19F00196A11DB11D3FBFBA2FA92F1C
:100B8000982F8827BC01CD01620F711D811D911D19
:100B900042E0660F771F881F991F4A95D1F7089585
:100BA000089590E080E00895AF92BF92CF92DF92D7
:100BB000EF92FF920F931F93CF93DF933DE1E32ECC
:100BC00032E0F32E0FE212E0D0E0C0E043E0C42EAA
:100BD000D12CCE01B6010E94960BFB01EE0FFF1F38
:100BE000E60FF71FE050FE4FE80FF91F80818D32AE
:100BF00071F0F701A080F801B08061E08835D9F488
:100C00008B2D0E94D50360E08A2D0E94D50321968A
:100C1000F2E0EF0EF11C0E5F1F4FC930D105C9F68F
:100C2000DF91CF911F910F91FF90EF90DF90CF90C8
:100C3000BF90AF9008958A2D0E94D50360E08B2D60
:100C4000E4CF8F929F92AF92BF92CF92DF92EF92BA
:100C5000FF92CF9361E082E10E94D5038CE892E09D
:100C60000E946C0218161906CCF760E082E10E941F
:100C7000D5038CE892E00E944A02C82F0E94AB057F
:100C80004B015C018AE0C82ED12CE12CF12C0E9492
:100C9000AB05681979098A099B09683E734081058B
:100CA0009105A8F321E0C21AD108E108F10888EE05
:100CB000880E83E0981EA11CB11CC114D104E1046C
:100CC000F10429F78C2FCF91FF90EF90DF90CF9018
:100CD000BF90AF909F908F900895FC0101900020ED
:100CE000E9F73197AF01481B590BBC0188E993E044
:100CF0000C940E02CF93DF93EC0160E08E810E9492
:100D0000D50361E08E810E94D50360E08E810E9450
:100D1000D5038BE891E00197F1F7DF91CF9108952A
:100D2000CF92DF92EF92FF920F931F93CF93DF93B7
:100D30006C017C0187E0E80EF11CD0E0C0E0062FDA
:100D400010E0B8010C2E02C0759567950A94E2F781
:100D50006170F70181917F010E94D5032196C43013
:100D6000D10579F7C601DF91CF911F910F91FF90C7
:100D7000EF90DF90CF900C947A06CF92DF92EF92B3
:100D8000FF920F931F93CF93DF93EC01F62E642F06
:100D90008C810E94D5038D818F3F19F060E00E9405
:100DA000D5030F2D10E08F8584FF25C06E0187E0ED
:100DB000C80ED11CF12CE12CB8010E2C02C0759587
:100DC00067950A94E2F76170F60181916F010E94C4
:100DD000D503FFEFEF1AFF0A88E0E816F10461F788
:100DE000CE01DF91CF911F910F91FF90EF90DF9097
:100DF000CF900C947A06B80184E0759567958A9532
:100E0000E1F7CE010E9490066F2DCE01DF91CF91C8
:100E10001F910F91FF90EF90DF90CF900C94900670
:100E200040E0682F88E993E00C94BD0681E00E94C1
:100E300010078BE39FE10197F1F70895CF93DF93BC
:100E4000613029F09091A70398609093A703609375
:100E5000AB031092AC0390E49093AD038093AE0388
:100E6000805C8093AF0361E080919C030E94070443
:100E700080919D038F3F19F061E00E94070461E0BB
:100E800080919E030E940704C8E9D3E09E0128597F
:100E900033408091A70384FD0BC084E090E021964D
:100EA0002817390744F461E08E810E940704EECFD1
:100EB00088E090E0F4CF8BE39DE00197F1F760E0EC
:100EC00080919C030E94D50360E080919E030E9464
:100ED000D50380919D038F3F19F060E00E94D503F8
:100EE0008091A70384FD34C063E088E993E00E9409
:100EF0009006CBE4D6E4CE010197F1F763E088E9F0
:100F000093E00E9490062197F1F763E088E993E06F
:100F10000E94900683E592E00197F1F762E088E98C
:100F200093E00E9490068091A70380620E941007C0
:100F300084E08093A8038CE00E9410070E941607AB
:100F400082E08093A90386E0DF91CF910C94100793
:100F500080620E9410078BE496E40197F1F780917C
:100F6000A70380620E94100783E592E00197F1F7E2
:100F70008091A70380620E941007D5CF643009F4E6
:100F800063E09091AB03691710F06FEF690FE62FE4
:100F9000F0E0E856FC4F9489890F80680C941007A4
:100FA000EF92FF920F931F93CF93DF930E94160748
:100FB00000E012E0C0E07801D0E06C2F8D2F0E949D
:100FC000BE07F70161917F0188E993E00E94070263
:100FD000DF5FD33091F70D5F1F4FCF5FC33059F7FD
:100FE000DF91CF911F910F91FF90EF9008958D3277
:100FF000F1F464E080E00E94BE0789E692E00E947E
:101000006D060E9447048DE28093000280930102E6
:10101000809302028093030280930402809305026E
:1010200080930602809307028093080208959091AE
:101030008702981313C061E084E10E94D50361E048
:1010400083E10E94D50361E082E10E94D50364E060
:1010500080E00E94BE078FE692E0D1CF60E084E19D
:101060000E94D50360E083E10E94D50360E082E145
:101070000E94D50364E080E00E94BE0788E792E00A
:10108000BECFCF93DF93E0E0F2E0DF0130E020E07D
:101090008C918D3281F0A901ED01C40FD51F98818B
:1010A000981309C04F5F5F4F43305105A9F7DF9197
:1010B000CF910C94F7072F5F3F4F139623303105E4
:1010C00039F723E032E0A0E0B2E08D918D3251F0AB
:1010D00012969C911297891305C015969C911597AD
:1010E000891729F32A173B0781F7809104028D3273
:1010F00081F090910002891304C090910802891731
:10110000B1F290910202891304C0909106028917EE
:1011100071F229E032E080E090819D3231F09181DE
:101120009D3219F092819D3209F481E033962E1799
:101130003F0791F7811102C08DE2B9CFDF91CF91C6
:10114000089541E00E94BD0681E090E008951F925D
:101150000F920FB60F9211240BB60F922F933F935D
:101160004F935F936F937F938F939F93AF93BF93AF
:10117000EF93FF938CE892E00E948202FF91EF913F
:10118000BF91AF919F918F917F916F915F914F919F
:101190003F912F910F900BBE0F900FBE0F901F909D
:1011A00018951F920F920FB60F9211240BB60F9243
:1011B0002F938F939F93EF93FF93E0919C02F09175
:1011C0009D028081E091A202F091A30282FD1DC0E8
:1011D00090818091A5028F5F8F732091A602821764
:1011E00041F0E091A502F0E0E457FD4F958F809328
:1011F000A502FF91EF919F918F912F910F900BBEC0
:101200000F900FBE0F901F9018958081F2CF1F9204
:101210000F920FB60F9211242F933F938F939F93AA
:10122000AF93BF938091880290918902A0918A0226
:10123000B0918B023091820223E0230F2D3758F5B5
:101240000196A11DB11D2093820280938802909384
:101250008902A0938A02B0938B02809183029091BD
:101260008402A0918502B09186020196A11DB11D54
:101270008093830290938402A0938502B0938602A8
:10128000BF91AF919F918F913F912F910F900FBE82
:101290000F901F90189526E8230F0296A11DB11DEF
:1012A000D2CF10928F0210928E0288EE93E0A0E0CF
:1012B000B0E08093900290939102A0939202B09339
:1012C000930285E492E090938D0280938C0285ECEA
:1012D00090E0909399028093980284EC90E0909330
:1012E0009B0280939A0280EC90E090939D02809301
:1012F0009C0281EC90E090939F0280939E0282EC8E
:1013000090E09093A1028093A00286EC90E09093ED
:10131000A3028093A2021092A5021092A60210923C
:10132000A7021092A80210929B0310929A0381E6E2
:1013300092E0909399038093980389E280939C03B1
:101340008FEF80939D038AE280939E038BE28093CC
:101350009F038CE28093A0038DE28093A1038EE231
:101360008093A2031092A3031092A4031092A503EA
:101370001092A6031092A70361E080E10E941E076D
:1013800010922B0310922F0310922E031092300311
:1013900087E592E090932A0380932903E5E4F3E044
:1013A0001082148213821582369683E0E138F807A2
:1013B000B9F78DE092E090938C0380938B038AE0E1
:1013C00092E090938E0380938D0384E080938F034B
:1013D00083E08093900381E192E090938A0380936D
:1013E00089038AE090E0909392038093910384EFC5
:1013F00091E090939403809393031092970310923B
:101400009603109285031092860310928703109220
:101410008803109295030895789484B5826084BD02
:1014200084B5816084BD85B5826085BD85B58160E8
:1014300085BD80916E00816080936E001092810066
:101440008091810082608093810080918100816021
:1014500080938100809180008160809380008091E2
:10146000B10084608093B1008091B000816080936E
:10147000B0008091910082608093910080919100F2
:1014800081608093910080919000816080939000B2
:101490008091A10082608093A1008091A100816071
:1014A0008093A1008091A00081608093A000809132
:1014B00021018260809321018091210181608093CC
:1014C00021018091200181608093200180917A0028
:1014D000846080937A0080917A00826080937A00A1
:1014E00080917A00816080937A0080917A00806890
:1014F00080937A001092C100E0919C02F0919D02CD
:1015000082E08083E0919802F09199021082E0914C
:101510009A02F0919B028FEC80831092A402E091DA
:10152000A002F091A10286E08083E0919E02F091FA
:101530009F02808180618083E0919E02F0919F02F2
:10154000808188608083E0919E02F0919F0280817B
:1015500080688083E0919E02F0919F0280818F7D60
:10156000808361E082E30E94070461E082E30E94DD
:10157000D50361E081E30E94070461E081E30E94FA
:10158000D50361E080E30E94070461E080E30E94EC
:10159000D50361E08FE20E94070461E08FE20E94C0
:1015A000D50362E085E30E94070462E084E30E94C1
:1015B000070462E083E30E940704CFE2D2E00DE17A
:1015C00012E063E4E62E62E0F62E8881229661E066
:1015D0000E940704F80180810E5F1F4F61E00E94A6
:1015E0000704EC16FD0689F761E084E10E94070418
:1015F00061E083E10E94070461E082E10E94070448
:1016000060E085E10E94070485E10E94A90301973B
:1016100009F059C088E58093870264E084E10E9464
:101620001E070E94160703E010E048E5F42E5FE471
:10163000E52E0E94D007909109028091870261E017
:10164000981346C083E10E94D50360E084E10E94C4
:10165000D5030E944704282F80ED820F8A3080F541
:10166000822F022E000C990BC197B8010E94960B95
:10167000EB01CC0FDD1FC60FD71FC050DE4FC80FC8
:10168000D91F88818D32E1F4622F8CE892E00E94AC
:1016900007020E9421068A3799F080918702888389
:1016A0000E94D00780918702883511F40E94D405EA
:1016B0000E94410880910902883539F4E0920902BC
:1016C0000E941103B6CF8FE4A6CFF0920902F8CFA3
:1016D00084E10E94D50360E083E10E94D5030E946B
:1016E000210690ED980F9A30D8F4082E000C990B33
:1016F000C197B8010E94960BEB01CC0FDD1FC60FFE
:10170000D71FC050DE4FC80FD91F88818D3241F4DA
:1017100061E38CE892E00E94070280910902BFCF4A
:101720006AE78CE892E00E940702CACF97FB072E77
:1017300016F4009407D077FD09D00E94B20B07FC85
:1017400005D03EF4909581959F4F089570956195D1
:101750007F4F0895EE0FFF1F881F8BBF0790F691F4
:10176000E02D1994AA1BBB1B51E107C0AA1FBB1F88
:10177000A617B70710F0A61BB70B881F991F5A951D
:10178000A9F780959095BC01CD010895F894FFCFFD
:101790002D2D2D2D2D2D2D2D2D583534333231302D
:1017A0002F3132333435363738392A3023020003AB
:1017B000000400050006000700080009000A001FD9
:1017C00000200021002200230024002500260027FD
:1017D0000000000000A4020E023B02F1026C024A6B
:1017E000025E020000000043040304D20300000074
:1017F00000A1080E02D105D005447261772100597D
:101800006F752057696E2100596F75204C6F736595
:021810002100B5
:00000001FF
