:100000000C9441010C9472010C9472010C947201D5
:100010000C9472010C9472010C9472010C94720194
:100020000C9472010C9472010C9472010C94720184
:100030000C9472010C9472010C9472010C94720174
:100040000C9472010C9472010C9472010C94720164
:100050000C9472010C9472010C9472010C94D305EF
:100060000C9472010C949D050C9473050C94720110
:100070000C9472010C9472010C9472010C94720134
:100080000C9472010C9472010C9472010C94720124
:100090000C9472010C9472010C9472010C94720114
:1000A0000C9472010C9472010C9472010C94720104
:1000B0000C9472010C9472010C9472010C947201F4
:1000C0000C9472010C9472010C9472010C947201E4
:1000D0000C9472010C9472010C9472010C947201D4
:1000E0000C9472010C94FD020C94E1020C94DB025E
:1000F0000C9401030C9419040C94F3020C94B001B9
:100100000C94EB020C940E040C9406030C94C401A2
:100110000C94CC020C940F040C94D4020C946D0536
:100120000C94F9020C9457020C94C6020C94EF0242
:100130000C94D8020C9407030C9474010C941504CD
:100140000C94D2010C941D060C94E5020C940A0246
:100150000C94D0020C940B030C9412040C94A10187
:1001600000002100240027002A002D003000330069
:1001700001010000040107010A010000220025001E
:1001800028002B002E003100340002010000050180
:1001900008010B01000020002300260029002C008C
:1001A0002F003200000100000301060109010505CE
:1001B0000505070508080808020202020A0A0808DD
:1001C000040404040101010101010101030303030B
:1001D00003030303040707070C0C0C0C0C0C0C0C9A
:1001E0000202020206060606060606060B0B0B0BAB
:1001F0000B0B0B0B010210202008081020401020D0
:1002000040800201020108040201010204081020DA
:1002100040808040201008040201800402018040D8
:100220002010080402010804020101020408102041
:100230004080010204081020408000000A0B0209DF
:100240000C0D0E0807030401000000000000000070
:10025000000000000000000000000000000000009E
:10026000000000000000121110000000000000005B
:10027000000000000000000000000000000000007E
:100280001D0611241FBECFEFD1E2DEBFCDBF00E0BF
:100290000CBF12E0A0E0B2E0E0EEFFE000E00BBF38
:1002A00002C007900D92A036B107D9F723E0A0E66F
:1002B000B2E001C01D92AE38B207E1F711E0C1E42F
:1002C000D1E000E006C021970109802FFE010E94C5
:1002D000E607C034D10780E00807A9F70E94D806D6
:1002E0000C94EE070C940000AF92BF92CF92DF9275
:1002F000EF92FF920F931F93CF93DF936C017B01DB
:100300008B01040F151FEB015E01AE18BF08C0176B
:10031000D10759F06991D601ED91FC910190F081DE
:10032000E02DC6011995892B79F7C501DF91CF9191
:100330001F910F91FF90EF90DF90CF90BF90AF9003
:100340000895FC01538D448D252F30E0842F90E0DB
:10035000821B930B541710F0CF96089501970895C0
:10036000FC01918D828D981761F0A28DAE0FBF2F89
:10037000B11D5D968C91928D9F5F9F73928F90E0DF
:1003800008958FEF9FEF0895FC01918D828D98174E
:1003900031F0828DE80FF11D858D90E008958FEF8B
:1003A0009FEF0895FC01918D228D892F90E0805C54
:1003B0009F4F821B91098F73992708958AE692E0D7
:1003C0000E94D20121E0892B09F420E0822F0895B8
:1003D000FC01A48DA80FB92FB11DA35ABF4F2C91BA
:1003E000848D90E001968F739927848FA689B789B1
:1003F0002C93A089B1898C91837080648C93938DA8
:10040000848D981306C00288F389E02D80818F7D4A
:1004100080830895EF92FF920F931F93CF93DF9302
:10042000EC0181E0888F9B8D8C8D98131AC0E88930
:10043000F989808185FF15C09FB7F894EE89FF89FF
:100440006083E889F98980818370806480839FBF9D
:1004500081E090E0DF91CF911F910F91FF90EF909D
:100460000895F62E0B8D10E00F5F1F4F0F731127AD
:10047000E02E8C8D8E110CC00FB607FCFACFE889E8
:10048000F989808185FFF5CFCE010E94E801F1CF87
:10049000EB8DEC0FFD2FF11DE35AFF4FF0829FB75C
:1004A000F8940B8FEA89FB8980818062CFCFCF934C
:1004B000DF93EC01888D8823B9F0AA89BB89E8898C
:1004C000F9898C9185FD03C0808186FD0DC00FB632
:1004D00007FCF7CF8C9185FFF2CF808185FFEDCFB0
:1004E000CE010E94E801E9CFDF91CF91089580E02D
:1004F00090E0892B29F00E94DE0181110E9400000A
:1005000080E090E0892B49F080E090E0892B29F091
:100510000E94000081110E94000080E090E0892B81
:1005200049F080E090E0892B29F00E9400008111C1
:100530000E94000080E090E0892B49F080E090E08C
:10054000892B29F00E94000081110C94000008956D
:100550008150823108F05AC0E82FF0E08827EC542F
:10056000FD4F8F4F0C94E607D402D802C602CC028E
:10057000D0020603DB02E102E502EB02EF02F30226
:10058000F902FD020603010307030B0380918000BB
:100590008F77809380000895809180008F7DF9CFC0
:1005A00080918000877FF5CF84B58F7784BD0895D3
:1005B00084B58F7DFBCF8091B0008F778093B000A2
:1005C00008958091B0008F7DF9CF809190008F7752
:1005D000809390000895809190008F7DF9CF809155
:1005E0009000877FF5CF8091A0008F778093A00047
:1005F00008958091A0008F7DF9CF8091A000877F22
:10060000F5CF809120018F7780932001089580910C
:1006100020018F7DF9CF80912001877FF5CFCF9387
:10062000DF93282F30E0F901E65CFD4F8491F9015A
:10063000EC50FE4FD491F901E255FE4FC491CC230A
:10064000A1F081110E94A802EC2FF0E0EE0FFF1F35
:10065000EC56FE4FA591B491EC91ED2381E090E032
:1006600009F480E0DF91CF91089580E090E0FACF27
:100670001F93CF93DF93282F30E0F901E65CFD4F05
:100680008491F901EC50FE4FD491F901E255FE4FEF
:10069000C491CC23A9F0162F81110E94A802EC2F3F
:1006A000F0E0EE0FFF1FE658FE4FA591B4918FB713
:1006B000F894EC91111108C0D095DE23DC938FBF24
:1006C000DF91CF911F910895DE2BF8CF80916902C1
:1006D00061E0883739F480E20E94380360E083E00B
:1006E0000C94380383E00E94380360E080E2F8CF86
:1006F000CF93DF9390E0FC01EC50FE4F24918255A4
:100700009E4FFC0184918823C9F090E0880F991FC7
:10071000FC01E05AFE4FA591B491FC01E658FE4F52
:10072000C591D49161110DC09FB7F8948C9120951B
:1007300082238C938881282328839FBFDF91CF91C8
:100740000895623051F49FB7F8943C91822F8095C0
:1007500083238C93E8812E2BEFCF8FB7F894EC9105
:100760002E2B2C938FBFEACF3FB7F8948091650270
:1007700090916602A0916702B091680226B5A89B8D
:1007800005C02F3F19F00196A11DB11D3FBFBA2F23
:10079000A92F982F8827BC01CD01620F711D811DE3
:1007A000911D42E0660F771F881F991F4A95D1F768
:1007B00008958F929F92AF92BF92CF92DF92EF9265
:1007C000FF920E94B4036B017C0192E0892E912C70
:1007D000A12CB12C0E94B4036C197D098E099F09CC
:1007E000683E734081059105A8F328EEC20E23E010
:1007F000D21EE11CF11C8A9489288A288B2829F0B2
:10080000812C912C54018394E5CFFF90EF90DF90E1
:10081000CF90BF90AF909F908F900895089590E0F3
:1008200080E00895862F0C940F03862F642F0C947C
:100830003803862F642F0C947803CF93DF93EC0159
:1008400060E08E810E94380361E08E810E9438034F
:1008500060E08E810E9438038BE891E00197F1F708
:10086000DF91CF910895CF92DF92EF92FF920F9395
:100870001F93CF93DF936C017C0187E0E80EF11C9E
:10088000D0E0C0E0062F10E0B8010C2E02C0759534
:1008900067950A94E2F76170F70181917F010E94E8
:1008A00038032196C430D10579F7C601DF91CF9185
:1008B0001F910F91FF90EF90DF90CF900C941D044B
:1008C000CF92DF92EF92FF920F931F93CF93DF931C
:1008D000EC01F62E642F8C810E9438038D818F3FAE
:1008E00019F060E00E9438030F2D10E08F8584FF1F
:1008F00025C06E0187E0C80ED11CF12CE12CB80197
:100900000E2C02C0759567950A94E2F76170F601A6
:1009100081916F010E943803FFEFEF1AFF0A88E010
:10092000E816F10461F7CE01DF91CF911F910F918D
:10093000FF90EF90DF90CF900C941D04B80184E0FD
:10094000759567958A95E1F7CE010E9433046F2D66
:10095000CE01DF91CF911F910F91FF90EF90DF902B
:10096000CF900C943304CF93DF93613029F09091B2
:1009700085039860909385036093890310928A039E
:1009800090E490938B0380938C03805C80938D0321
:1009900061E080917A030E94780380917B038F3F0E
:1009A00019F061E00E94780361E080917C030E946D
:1009B0007803C6E7D3E09E01265733408091850334
:1009C00084FD0BC084E090E021962817390744F499
:1009D00061E08E810E947803EECF88E090E0F4CF52
:1009E0008BE39DE00197F1F760E080917A030E942C
:1009F000380360E080917C030E94380380917B0380
:100A00008F3F19F060E00E9438036091850364FD18
:100A100045C063E086E793E00E943304CBE4D6E46C
:100A2000CE010197F1F763E086E793E00E9433047B
:100A30002197F1F763E086E793E00E94330483E5B2
:100A400092E00197F1F762E086E793E00E943304B9
:100A500060918503606240E086E793E00E94600455
:100A600084E08093860340E06CE086E793E00E9498
:100A7000600440E061E086E793E00E9460048BE35D
:100A80009FE10197F1F782E08093870340E066E001
:100A900086E793E0DF91CF910C946004606240E0C0
:100AA00086E793E00E9460048BE496E40197F1F7F7
:100AB00060918503606240E086E793E00E946004F5
:100AC00083E592E00197F1F760918503606240E071
:100AD00086E793E00E946004BBCF41E00E9460047F
:100AE00081E090E008951F920F920FB60F921124AB
:100AF0000BB60F922F933F934F935F936F937F9318
:100B00008F939F93AF93BF93EF93FF938AE692E007
:100B10000E94E801FF91EF91BF91AF919F918F915A
:100B20007F916F915F914F913F912F910F900BBEED
:100B30000F900FBE0F901F9018951F920F920FB637
:100B40000F9211240BB60F922F938F939F93EF93D5
:100B5000FF93E0917A02F0917B028081E091800224
:100B6000F091810282FD1DC09081809183028F5F90
:100B70008F7320918402821741F0E0918302F0E0AC
:100B8000E659FD4F958F80938302FF91EF919F91DE
:100B90008F912F910F900BBE0F900FBE0F901F9053
:100BA00018958081F2CF1F920F920FB60F921124E9
:100BB0002F933F938F939F93AF93BF938091610245
:100BC00090916202A0916302B09164023091600240
:100BD00023E0230F2D3758F50196A11DB11D209359
:100BE00060028093610290936202A0936302B093CB
:100BF00064028091650290916602A0916702B091B3
:100C000068020196A11DB11D809365029093660252
:100C1000A0936702B0936802BF91AF919F918F91AB
:100C20003F912F910F900FBE0F901F90189526E8BF
:100C3000230F0296A11DB11DD2CF10926D0210920A
:100C40006C0288EE93E0A0E0B0E080936E02909397
:100C50006F02A0937002B09371028BE392E09093C5
:100C60006B0280936A0285EC90E090937702809308
:100C7000760284EC90E0909379028093780280EC85
:100C800090E090937B0280937A0281EC90E09093C5
:100C90007D0280937C0282EC90E090937F028093AF
:100CA0007E0286EC90E09093810280938002109205
:100CB0008302109284021092850210928602109292
:100CC00079031092780387E592E0909377038093FD
:100CD000760389E280937A038FEF80937B038AE225
:100CE00080937C038BE280937D038CE280937E0370
:100CF0008DE280937F038EE28093800310928103C4
:100D00001092820310928303109284031092850341
:100D100061E080E10E94B3041092090310920D0378
:100D200010920C0310920E038DE492E0909308034E
:100D300080930703E3E2F3E01082148213821582AA
:100D4000369683E0EF35F807B9F783E092E09093A9
:100D50006A038093690380E092E090936C03809330
:100D60006B0384E080936D0383E080936E0387E0E0
:100D700092E090936803809367038AE090E09093F9
:100D8000700380936F0384EF91E0909372038093DC
:100D90007103109275031092740310926303109202
:100DA0006403109265031092660310927303089512
:100DB000789484B5826084BD84B5816084BD85B536
:100DC000826085BD85B5816085BD80916E00816042
:100DD00080936E00109281008091810082608093E8
:100DE00081008091810081608093810080918000EA
:100DF0008160809380008091B10084608093B10015
:100E00008091B00081608093B000809191008260F9
:100E100080939100809191008160809391008091F6
:100E200090008160809390008091A1008260809307
:100E3000A1008091A10081608093A1008091A00019
:100E400081608093A00080912101826080932101C4
:100E50008091210181608093210180912001816036
:100E60008093200180917A00846080937A00809141
:100E70007A00826080937A0080917A00816080930A
:100E80007A0080917A00806880937A001092C10085
:100E9000E0917A02F0917B0282E08083E091760219
:100EA000F09177021082E0917802F09179028FEC54
:100EB000808310928202E0917E02F0917F0286E0B0
:100EC0008083E0917C02F0917D028081806180834B
:100ED000E0917C02F0917D02808188608083E091C6
:100EE0007C02F0917D02808180688083E0917C02A9
:100EF000F0917D0280818F7D808361E082E30E949A
:100F0000780361E082E30E94380361E081E30E949C
:100F1000780361E081E30E94380361E080E30E948E
:100F2000780361E080E30E94380361E08FE20E9471
:100F3000780361E08FE20E94380362E085E30E945B
:100F4000780362E084E30E94780362E083E30E9416
:100F50007803C3E1D2E005E212E087E2E82E82E006
:100F6000F82E8881229661E00E947803F801808142
:100F70000E5F1F4F61E00E947803EC16FD0689F7B3
:100F800060E085E10E94780385E10E940F0364E040
:100F900084E10E94B30440E061E086E793E00E94B0
:100FA00060048BE39FE10197F1F7D8E7C9E7D0939D
:100FB00069020E9466030E94D903C09369020E94DD
:100FC00066030E94D9030E947702F1CFEE0FFF1F44
:100FD000881F8BBF0790F691E02D1994F894FFCFEE
:100FE0003534333231302F313233343536373839C6
:100FF0002A30231F00200021002200230024002586
:101000000026002700020003000400050006000778
:1010100000080009000A00000000000A027401A193
:10102000015702D201B001C40100000000190415EB
:10103000041204000000006D0574010F040E04008A
:00000001FF
