:100000000C9441010C9472010C9472010C947201D5
:100010000C9472010C9472010C9472010C94720194
:100020000C9472010C9472010C9472010C94720184
:100030000C9472010C9472010C9472010C94720174
:100040000C9472010C9472010C9472010C94720164
:100050000C9472010C9472010C9472010C94E806D9
:100060000C9472010C94B2060C9488060C947201E4
:100070000C9472010C9472010C9472010C94720134
:100080000C9472010C9472010C9472010C94720124
:100090000C9472010C9472010C9472010C94720114
:1000A0000C9472010C9472010C9472010C94720104
:1000B0000C9472010C9472010C9472010C947201F4
:1000C0000C9472010C9472010C9472010C947201E4
:1000D0000C9472010C9472010C9472010C947201D4
:1000E0000C9472010C9432070C94A0030C948903B5
:1000F0000C943B020C948D030C949B030C9485038D
:100100000C9497030C94A1030C9493030C94600338
:100110000C94F1020C946C040C9443040C940304AE
:100120000C946A030C94D2030C94A5030C945E0205
:100130000C946E030C9472030C94A4020C944A0267
:100140000C9475030C940E020C9482060C947B03A1
:100150000C946D040C9466030C947F030C946C0255
:1001600000002100240027002A002D003000330069
:1001700001010000040107010A010000220025001E
:1001800028002B002E003100340002010000050180
:1001900008010B01000020002300260029002C008C
:1001A0002F003200000100000301060109010505CE
:1001B0000505070508080808020202020A0A0808DD
:1001C000040404040101010101010101030303030B
:1001D00003030303040707070C0C0C0C0C0C0C0C9A
:1001E0000202020206060606060606060B0B0B0BAB
:1001F0000B0B0B0B010210202008081020401020D0
:1002000040800201020108040201010204081020DA
:1002100040808040201008040201800402018040D8
:100220002010080402010804020101020408102041
:100230004080010204081020408000000A0B0209DF
:100240000C0D0E0807030401000000000000000070
:10025000000000000000000000000000000000009E
:10026000000000000000121110000000000000005B
:10027000000000000000000000000000000000007E
:10028000320711241FBECFEFD1E2DEBFCDBF00E0A9
:100290000CBF12E0A0E0B2E0E2ECF5E100E00BBF41
:1002A00002C007900D92AA36B107D9F723E0AAE65B
:1002B000B2E001C01D92A839B207E1F711E0C1E434
:1002C000D1E000E006C021970109802FFE010E94C5
:1002D000C30AC034D10780E00807A9F70E94ED07E0
:1002E0000C94DF0A0C94000096E0899FD001112441
:1002F000AF5EBC4F90967C936E935F9791E0919622
:100300009C939197E0917E03F0917F0390917D0300
:10031000992339F0309751F0811108C080912D0355
:100320001994309719F05C968C91FACF0895CF927A
:10033000DF92EF92FF920F931F9396E0899FF00157
:100340001124EF5EFC4F11A2278D30A12130310521
:1003500051F178F02230310509F451C023303105D4
:1003600009F452C01F910F91FF90EF90DF90CF9052
:1003700008956623B9F361E070E00E9474012FB71D
:10038000F8948091700290917102A0917202B091E4
:1003900073022FBF8093690390936A03A0936B034A
:1003A000B0936C03DFCF9FB7F894C0907002D090E9
:1003B0007102E0907202F09073029FBF0091690396
:1003C00010916A0320916B0330916C03C01AD10A1B
:1003D000E20AF30A00917B0310917C0330E020E0F5
:1003E0000C151D052E053F0550F462E070E01F91CD
:1003F0000F91FF90EF90DF90CF900C9474016111FA
:10040000B1CF63E070E0F3CF70E060E0F0CFDC01EB
:10041000ED91FC910190F081E02D1994AF92BF9283
:10042000CF92DF92EF92FF920F931F93CF93DF93C0
:100430006C017B018B01040F151FEB015E01AE18EF
:10044000BF08C017D10759F06991D601ED91FC9111
:100450000190F081E02DC6011995892B79F7C5012E
:10046000DF91CF911F910F91FF90EF90DF90CF9090
:10047000BF90AF900895FC01538D448D252F30E03F
:10048000842F90E0821B930B541710F0CF960895A1
:1004900001970895FC01918D828D981761F0A28DCE
:1004A000AE0FBF2FB11D5D968C91928D9F5F9F7394
:1004B000928F90E008958FEF9FEF0895FC01918D4A
:1004C000828D981731F0828DE80FF11D858D90E0B7
:1004D00008958FEF9FEF0895FC01918D228D892F54
:1004E00090E0805C9F4F821B91098F73992708953C
:1004F00084E792E00E946C0221E0892B09F420E05D
:10050000822F0895FC01A48DA80FB92FB11DA35A05
:10051000BF4F2C91848D90E001968F739927848F23
:10052000A689B7892C93A089B1898C918370806446
:100530008C93938D848D981306C00288F389E02DE7
:1005400080818F7D80830895EF92FF920F931F9398
:10055000CF93DF93EC0181E0888F9B8D8C8D981376
:100560001AC0E889F989808185FF15C09FB7F89482
:10057000EE89FF896083E889F989808183708064CE
:1005800080839FBF81E090E0DF91CF911F910F9119
:10059000FF90EF900895F62E0B8D10E00F5F1F4F28
:1005A0000F731127E02E8C8D8E110CC00FB607FC37
:1005B000FACFE889F989808185FFF5CFCE010E94C5
:1005C0008202F1CFEB8DEC0FFD2FF11DE35AFF4FAF
:1005D000F0829FB7F8940B8FEA89FB898081806253
:1005E000CFCFCF93DF93EC01888D8823B9F0AA8910
:1005F000BB89E889F9898C9185FD03C0808186FDDE
:100600000DC00FB607FCF7CF8C9185FFF2CF80812C
:1006100085FFEDCFCE010E948202E9CFDF91CF911D
:10062000089580E090E0892B29F00E9478028111E2
:100630000E94000080E090E0892B49F080E090E08B
:10064000892B29F00E94000081110E94000080E0A7
:1006500090E0892B49F080E090E0892B29F00E94FE
:10066000000081110E94000080E090E0892B49F099
:1006700080E090E0892B29F00E94000081110C9409
:10068000000008958150823108F05AC0E82FF0E050
:100690008827E25BFC4F8F4F0C94C30A6E037203F2
:1006A000600366036A03A00375037B037F0385036E
:1006B00089038D0393039703A0039B03A103A50361
:1006C000809180008F7780938000089580918000D2
:1006D0008F7DF9CF80918000877FF5CF84B58F77AC
:1006E00084BD089584B58F7DFBCF8091B0008F7756
:1006F0008093B00008958091B0008F7DF9CF8091F4
:1007000090008F77809390000895809190008F7D66
:10071000F9CF80919000877FF5CF8091A0008F77EF
:100720008093A00008958091A0008F7DF9CF8091E3
:10073000A000877FF5CF809120018F7780932001E3
:100740000895809120018F7DF9CF80912001877FCE
:10075000F5CFCF93DF93282F30E0F901E65CFD4F12
:100760008491F901EC50FE4FD491F901E255FE4F0E
:10077000C491CC23A1F081110E944203EC2FF0E040
:10078000EE0FFF1FEC56FE4FA591B491EC91ED23B7
:1007900081E090E009F480E0DF91CF91089580E05E
:1007A00090E0FACF862F0C94A9031F93CF93DF9389
:1007B000282F30E0F901E65CFD4F8491F901EC50FF
:1007C000FE4FD491F901E255FE4FC491CC23A9F01C
:1007D000162F81110E944203EC2FF0E0EE0FFF1F55
:1007E000E658FE4FA591B4918FB7F894EC91111192
:1007F00008C0D095DE23DC938FBFDF91CF911F918E
:100800000895DE2BF8CF862F642F0C94D503CF9359
:10081000DF9390E0FC01EC50FE4F249182559E4FF7
:10082000FC0184918823C9F090E0880F991FFC0196
:10083000E05AFE4FA591B491FC01E658FE4FC591D8
:10084000D49161110DC09FB7F8948C9120958223AB
:100850008C938881282328839FBFDF91CF910895AF
:10086000623051F49FB7F8943C91822F8095832396
:100870008C93E8812E2BEFCF8FB7F894EC912E2B31
:100880002C938FBFEACF862F642F0C9407043FB7B9
:10089000F89480916B0290916C02A0916D02B091DE
:1008A0006E0226B5A89B05C02F3F19F00196A11D29
:1008B000B11D3FBFBA2FA92F982F8827BC01CD01AA
:1008C000620F711D811D911D42E0660F771F881F09
:1008D000991F4A95D1F70895089590E080E0089512
:1008E000AF92BF92CF92DF92EF92FF920F931F933E
:1008F000CF93DF933DE1E32E32E0F32E0FE212E0DF
:10090000D0E0C0E043E0C42ED12CCE01B6010E945D
:10091000AF0AFB01EE0FFF1FE60FF71FE050FE4F7F
:10092000E80FF91F80818D3271F0F701A080F80186
:10093000B08061E08835D9F48B2D0E94D50360E04A
:100940008A2D0E94D5032196F2E0EF0EF11C0E5F76
:100950001F4FC930D105C9F6DF91CF911F910F917B
:10096000FF90EF90DF90CF90BF90AF9008958A2DC9
:100970000E94D50360E08B2DE4CF8F929F92AF92BF
:10098000BF92CF92DF92EF92FF92CF9361E082E12C
:100990000E94D50384E792E00E946C0218161906A3
:1009A000CCF760E082E10E94D50384E792E00E94E8
:1009B0004A02C82F0E9447044B015C018AE0C82EFE
:1009C000D12CE12CF12C0E944704681979098A097D
:1009D0009B09683E734081059105A8F321E0C21A86
:1009E000D108E108F10888EE880E83E0981EA11C6A
:1009F000B11CC114D104E104F10429F78C2FCF916B
:100A0000FF90EF90DF90CF90BF90AF909F908F902E
:100A10000895CF93DF93EC0160E08E810E94D503AF
:100A200061E08E810E94D50360E08E810E94D50333
:100A30008BE891E00197F1F7DF91CF910895CF9284
:100A4000DF92EF92FF920F931F93CF93DF936C018E
:100A50007C0187E0E80EF11CD0E0C0E0062F10E03A
:100A6000B8010C2E02C0759567950A94E2F7617083
:100A7000F70181917F010E94D5032196C430D105F1
:100A800079F7C601DF91CF911F910F91FF90EF9001
:100A9000DF90CF900C940905CF92DF92EF92FF92F6
:100AA0000F931F93CF93DF93EC01F62E642F8C816D
:100AB0000E94D5038D818F3F19F060E00E94D5031D
:100AC0000F2D10E08F8584FF25C06E0187E0C80ED2
:100AD000D11CF12CE12CB8010E2C02C07595679544
:100AE0000A94E2F76170F60181916F010E94D503CB
:100AF000FFEFEF1AFF0A88E0E816F10461F7CE0174
:100B0000DF91CF911F910F91FF90EF90DF90CF90E9
:100B10000C940905B80184E0759567958A95E1F70D
:100B2000CE010E941F056F2DCE01DF91CF911F9145
:100B30000F91FF90EF90DF90CF900C941F0540E055
:100B4000682F80E893E00C944C0581E00E949F059B
:100B50008BE39FE10197F1F70895CF93DF93613025
:100B600029F090918F03986090938F036093930383
:100B70001092940390E49093950380939603805C85
:100B80008093970361E0809184030E940704809121
:100B900085038F3F19F061E00E94070461E08091B6
:100BA00086030E940704C0E8D3E09E01205833402A
:100BB00080918F0384FD0BC084E090E0219628177C
:100BC000390744F461E08E810E940704EECF88E08B
:100BD00090E0F4CF8BE39DE00197F1F760E0809126
:100BE00084030E94D50360E0809186030E94D503B0
:100BF000809185038F3F19F060E00E94D5038091BA
:100C00008F0384FD34C063E080E893E00E941F05F9
:100C1000CBE4D6E4CE010197F1F763E080E893E0FE
:100C20000E941F052197F1F763E080E893E00E949E
:100C30001F0583E592E00197F1F762E080E893E019
:100C40000E941F0580918F0380620E949F0584E0AF
:100C5000809390038CE00E949F050E94A50582E08E
:100C60008093910386E0DF91CF910C949F05806281
:100C70000E949F058BE496E40197F1F780918F0322
:100C800080620E949F0583E592E00197F1F78091D1
:100C90008F0380620E949F05D5CFEF92FF920F9342
:100CA0001F93CF93DF930E94A50580E0E82E82E09A
:100CB000F82EC0E08701D0E0E0919303CE1700F159
:100CC000E150F0E0E058FC4F84898D0F80680E946D
:100CD0009F05F80161918F0180E893E00E9407026F
:100CE000DF5FD33049F7CF5FF3E0EF0EF11CC33085
:100CF00009F7DF91CF911F910F91FF90EF90089529
:100D0000EC2FDFCF41E00E944C0581E090E0089598
:100D10001F920F920FB60F9211240BB60F922F93C2
:100D20003F934F935F936F937F938F939F93AF9373
:100D3000BF93EF93FF9384E792E00E948202FF91BA
:100D4000EF91BF91AF919F918F917F916F915F9143
:100D50004F913F912F910F900BBE0F900FBE0F90B0
:100D60001F9018951F920F920FB60F9211240BB679
:100D70000F922F938F939F93EF93FF93E0918402B1
:100D8000F09185028081E0918A02F0918B0282FDD0
:100D90001DC0908180918D028F5F8F7320918E0294
:100DA000821741F0E0918D02F0E0EC58FD4F958FF5
:100DB00080938D02FF91EF919F918F912F910F90D2
:100DC0000BBE0F900FBE0F901F9018958081F2CF31
:100DD0001F920F920FB60F9211242F933F938F9370
:100DE0009F93AF93BF938091700290917102A091F5
:100DF0007202B091730230916A0223E0230F2D3703
:100E000058F50196A11DB11D20936A0280937002CE
:100E100090937102A0937202B093730280916B025F
:100E200090916C02A0916D02B0916E020196A11D8D
:100E3000B11D80936B0290936C02A0936D02B093EE
:100E40006E02BF91AF919F918F913F912F910F9023
:100E50000FBE0F901F90189526E8230F0296A11D34
:100E6000B11DD2CF109277021092760288EE93E0F5
:100E7000A0E0B0E08093780290937902A0937A0288
:100E8000B0937B0285E492E09093750280937402A4
:100E900085EC90E0909381028093800284EC90E056
:100EA000909383028093820280EC90E0909385027D
:100EB0008093840281EC90E0909387028093860275
:100EC00082EC90E0909389028093880286EC90E017
:100ED00090938B0280938A0210928D0210928E0260
:100EE00010928F021092900210928303109282034C
:100EF00081E692E0909381038093800389E280935E
:100F000084038FEF809385038AE2809386038BE2CC
:100F1000809387038CE2809388038DE2809389031A
:100F20008EE280938A0310928B0310928C031092AE
:100F30008D0310928E0310928F0361E080E10E9476
:100F4000AD0510921303109217031092160310921E
:100F5000180387E592E09093120380931103EDE26A
:100F6000F3E01082148213821582369683E0E9360C
:100F7000F807B9F78DE092E09093740380937303C0
:100F80008AE092E0909376038093750384E08093E7
:100F9000770383E08093780381E192E0909372037A
:100FA000809371038AE090E090937A0380937903B1
:100FB00084EF91E090937C0380937B0310927F03F6
:100FC00010927E0310926D0310926E0310926F03C5
:100FD0001092700310927D030895789484B5826016
:100FE00084BD84B5816084BD85B5826085BD85B5CD
:100FF000816085BD80916E00816080936E0010924B
:1010000081008091810082608093810080918100C5
:101010008160809381008091800081608093800056
:101020008091B10084608093B1008091B0008160B4
:101030008093B000809191008260809391008091B4
:1010400091008160809391008091900081608093F5
:1010500090008091A10082608093A1008091A10006
:1010600081608093A1008091A00081608093A000A6
:101070008091210182608093210180912101816012
:1010800080932101809120018160809320018091D3
:101090007A00846080937A0080917A0082608093E5
:1010A0007A0080917A00816080937A0080917A0042
:1010B000806880937A001092C100E0918402F091E0
:1010C000850282E08083E0918002F09181021082AB
:1010D000E0918202F09183028FEC808310928C0267
:1010E000E0918802F091890286E08083E091860297
:1010F000F0918702808180618083E0918602F09187
:101100008702808188608083E0918602F091870267
:10111000808180688083E0918602F09187028081DF
:101120008F7D808361E082E30E94070461E082E3B7
:101130000E94D50361E081E30E94070461E081E33E
:101140000E94D50361E080E30E94070461E080E330
:101150000E94D50361E08FE20E94070461E08FE204
:101160000E94D50362E085E30E94070462E084E305
:101170000E94070462E083E30E940704CFE2D2E00A
:101180000DE112E08881229661E00E940704F801D7
:1011900080810E5F1F4F61E00E940704F2E0C334BC
:1011A000DF0781F761E084E10E94070461E083E1E9
:1011B0000E94070461E082E10E94070460E085E18B
:1011C0000E94070485E10E94A903019709F059C014
:1011D00088E580936F0264E084E10E94AD050E947F
:1011E000A50573E0E72EF12C812C912C54018394FA
:1011F00066246A94762C0E944D0690910902809193
:101200006F0261E098137BC183E10E94D50360E027
:1012100084E10E94D50321E020937D038FB7F894E9
:10122000409170025091710260917202709173024C
:101230008FBF80916D0390916E03A0916F03B09169
:101240007003481B590B6A0B7B0B809179039091BB
:101250007A03B0E0A0E084179507A607B707D8F691
:10126000C0E080917703C81770F4E0917303F091A8
:101270007403EC0FF11D62E080810E940704CF5FD0
:10128000F0CF8FE4A6CF312C80917803381608F088
:1012900062C0C32DD0E0E0917503F0917603EC0FAE
:1012A000FD1F61E080810E940704E0917503F091C9
:1012B0007603EC0FFD1F60E080810E94D50395014D
:1012C0008401032C04C0000F111F221F331F0A9436
:1012D000D2F7680100951095212C8091770328168C
:1012E00020F5422C512CE0917303F0917403E40D2E
:1012F000F51D80810E94A903F2013496892B61F4C7
:10130000EE0FFF1FEF5EFC4F808191818C299D299C
:10131000918380832394E1CFEE0FFF1FEF5EFC4F9C
:101320008081918180239123F3CFE0917503F09127
:101330007603EC0FFD1F61E080810E94D503809150
:10134000750390917603C80FD91F60E088810E94D1
:101350000704339499CFC1E1D3E06E01F601878D84
:1013600090A1892B21F4148E768E658E11A2F6E061
:10137000CF0ED11C2DE4C21623E0D20679F7512CF2
:1013800080917703581608F051C0412C052D10E0CC
:10139000000F111F075E1C4F20917803421608F0C2
:1013A00043C0F80160817181042C02C07695679575
:1013B0000A94E2F7529E90011124240D311DE1E1BF
:1013C000F3E080E0458D568D2417350709F4C5C03C
:1013D0008F5F36968A30B1F760FF24C0E1E1F3E019
:1013E00090E080E0448D411118C0E0917103F091CC
:1013F0007203E20FF31F408156E0589FF001599F9E
:10140000F00D1124EF5EFC4F448F368F258F10A214
:10141000178E61E00E94970105C0019636968A30CA
:10142000910501F74394B8CF5394AACF80E099A1D6
:101430009111892F2696CC16DD06C9F79FB7F8942F
:10144000409170025091710260917202709173022A
:101450009FBF40936D0350936E0360936F0370932F
:101460007003882309F4D7CE80913203882309F4CE
:10147000D2CE8091300390913103019709F0CBCE09
:1014800020912D03222309F4C6CE80ED820F8A30ED
:1014900078F5822F022E000C990BC197B7010E949C
:1014A000AF0AEB01CC0FDD1FC60FD71FC050DE4FB8
:1014B000C80FD91F88818D32D9F4622F84E792E05A
:1014C0000E9407020E94BD048A3791F080916F024A
:1014D00088830E944D0680916F02883511F40E9426
:1014E000700480910902883531F48FE480930902F9
:1014F0000E94110380CEE8E5E0930902F9CF84E170
:101500000E94D50360E083E10E94D5030E94BD04E0
:1015100090ED980F9A30D8F4082E000C990BC197D3
:10152000B7010E94AF0AEB01CC0FDD1FC60FD71F1A
:10153000C050DE4FC80FD91F88818D3241F461E35E
:1015400084E792E00E94070280910902C1CF6AE716
:1015500084E792E00E940702CBCF61705BCF97FBDC
:10156000072E16F4009407D077FD09D00E94CB0A0D
:1015700007FC05D03EF4909581959F4F0895709596
:1015800061957F4F0895EE0FFF1F881F8BBF079057
:10159000F691E02D1994AA1BBB1B51E107C0AA1FAD
:1015A000BB1FA617B70710F0A61BB70B881F991F04
:1015B0005A95A9F780959095BC01CD010895F894AE
:0215C000FFCF5B
:1015C2002D2D2D2D2D2D2D2D2D58353433323130FD
:1015D2002F3132333435363738392A30230200037B
:1015E200000400050006000700080009000A001FA9
:1015F20000200021002200230024002500260027CD
:101602000000000000A4020E023B02F1026C024A3A
:10161200025E020000000043040304D20300000043
:0A1622000082060E026D046C040045
:00000001FF
